{
  "contractName": "MyToken",
  "abi": [
    {
      "inputs": [],
      "stateMutability": "nonpayable",
      "type": "constructor"
    },
    {
      "anonymous": false,
      "inputs": [
        {
          "indexed": true,
          "internalType": "address",
          "name": "owner",
          "type": "address"
        },
        {
          "indexed": true,
          "internalType": "address",
          "name": "approved",
          "type": "address"
        },
        {
          "indexed": true,
          "internalType": "uint256",
          "name": "tokenId",
          "type": "uint256"
        }
      ],
      "name": "Approval",
      "type": "event"
    },
    {
      "anonymous": false,
      "inputs": [
        {
          "indexed": true,
          "internalType": "address",
          "name": "owner",
          "type": "address"
        },
        {
          "indexed": true,
          "internalType": "address",
          "name": "operator",
          "type": "address"
        },
        {
          "indexed": false,
          "internalType": "bool",
          "name": "approved",
          "type": "bool"
        }
      ],
      "name": "ApprovalForAll",
      "type": "event"
    },
    {
      "anonymous": false,
      "inputs": [
        {
          "indexed": true,
          "internalType": "address",
          "name": "previousOwner",
          "type": "address"
        },
        {
          "indexed": true,
          "internalType": "address",
          "name": "newOwner",
          "type": "address"
        }
      ],
      "name": "OwnershipTransferred",
      "type": "event"
    },
    {
      "anonymous": false,
      "inputs": [
        {
          "indexed": true,
          "internalType": "address",
          "name": "from",
          "type": "address"
        },
        {
          "indexed": true,
          "internalType": "address",
          "name": "to",
          "type": "address"
        },
        {
          "indexed": true,
          "internalType": "uint256",
          "name": "tokenId",
          "type": "uint256"
        }
      ],
      "name": "Transfer",
      "type": "event"
    },
    {
      "inputs": [
        {
          "internalType": "address",
          "name": "to",
          "type": "address"
        },
        {
          "internalType": "uint256",
          "name": "tokenId",
          "type": "uint256"
        }
      ],
      "name": "approve",
      "outputs": [],
      "stateMutability": "nonpayable",
      "type": "function"
    },
    {
      "inputs": [
        {
          "internalType": "address",
          "name": "owner",
          "type": "address"
        }
      ],
      "name": "balanceOf",
      "outputs": [
        {
          "internalType": "uint256",
          "name": "",
          "type": "uint256"
        }
      ],
      "stateMutability": "view",
      "type": "function"
    },
    {
      "inputs": [
        {
          "internalType": "uint256",
          "name": "tokenId",
          "type": "uint256"
        }
      ],
      "name": "getApproved",
      "outputs": [
        {
          "internalType": "address",
          "name": "",
          "type": "address"
        }
      ],
      "stateMutability": "view",
      "type": "function"
    },
    {
      "inputs": [
        {
          "internalType": "address",
          "name": "owner",
          "type": "address"
        },
        {
          "internalType": "address",
          "name": "operator",
          "type": "address"
        }
      ],
      "name": "isApprovedForAll",
      "outputs": [
        {
          "internalType": "bool",
          "name": "",
          "type": "bool"
        }
      ],
      "stateMutability": "view",
      "type": "function"
    },
    {
      "inputs": [],
      "name": "name",
      "outputs": [
        {
          "internalType": "string",
          "name": "",
          "type": "string"
        }
      ],
      "stateMutability": "view",
      "type": "function"
    },
    {
      "inputs": [],
      "name": "owner",
      "outputs": [
        {
          "internalType": "address",
          "name": "",
          "type": "address"
        }
      ],
      "stateMutability": "view",
      "type": "function"
    },
    {
      "inputs": [
        {
          "internalType": "uint256",
          "name": "tokenId",
          "type": "uint256"
        }
      ],
      "name": "ownerOf",
      "outputs": [
        {
          "internalType": "address",
          "name": "",
          "type": "address"
        }
      ],
      "stateMutability": "view",
      "type": "function"
    },
    {
      "inputs": [],
      "name": "renounceOwnership",
      "outputs": [],
      "stateMutability": "nonpayable",
      "type": "function"
    },
    {
      "inputs": [
        {
          "internalType": "address",
          "name": "from",
          "type": "address"
        },
        {
          "internalType": "address",
          "name": "to",
          "type": "address"
        },
        {
          "internalType": "uint256",
          "name": "tokenId",
          "type": "uint256"
        }
      ],
      "name": "safeTransferFrom",
      "outputs": [],
      "stateMutability": "nonpayable",
      "type": "function"
    },
    {
      "inputs": [
        {
          "internalType": "address",
          "name": "from",
          "type": "address"
        },
        {
          "internalType": "address",
          "name": "to",
          "type": "address"
        },
        {
          "internalType": "uint256",
          "name": "tokenId",
          "type": "uint256"
        },
        {
          "internalType": "bytes",
          "name": "_data",
          "type": "bytes"
        }
      ],
      "name": "safeTransferFrom",
      "outputs": [],
      "stateMutability": "nonpayable",
      "type": "function"
    },
    {
      "inputs": [
        {
          "internalType": "address",
          "name": "operator",
          "type": "address"
        },
        {
          "internalType": "bool",
          "name": "approved",
          "type": "bool"
        }
      ],
      "name": "setApprovalForAll",
      "outputs": [],
      "stateMutability": "nonpayable",
      "type": "function"
    },
    {
      "inputs": [
        {
          "internalType": "bytes4",
          "name": "interfaceId",
          "type": "bytes4"
        }
      ],
      "name": "supportsInterface",
      "outputs": [
        {
          "internalType": "bool",
          "name": "",
          "type": "bool"
        }
      ],
      "stateMutability": "view",
      "type": "function"
    },
    {
      "inputs": [],
      "name": "symbol",
      "outputs": [
        {
          "internalType": "string",
          "name": "",
          "type": "string"
        }
      ],
      "stateMutability": "view",
      "type": "function"
    },
    {
      "inputs": [
        {
          "internalType": "address",
          "name": "from",
          "type": "address"
        },
        {
          "internalType": "address",
          "name": "to",
          "type": "address"
        },
        {
          "internalType": "uint256",
          "name": "tokenId",
          "type": "uint256"
        }
      ],
      "name": "transferFrom",
      "outputs": [],
      "stateMutability": "nonpayable",
      "type": "function"
    },
    {
      "inputs": [
        {
          "internalType": "address",
          "name": "newOwner",
          "type": "address"
        }
      ],
      "name": "transferOwnership",
      "outputs": [],
      "stateMutability": "nonpayable",
      "type": "function"
    },
    {
      "inputs": [
        {
          "internalType": "address",
          "name": "to",
          "type": "address"
        },
        {
          "internalType": "uint256",
          "name": "amount",
          "type": "uint256"
        },
        {
          "internalType": "string",
          "name": "uri",
          "type": "string"
        }
      ],
      "name": "safeMint",
      "outputs": [],
      "stateMutability": "nonpayable",
      "type": "function"
    },
    {
      "inputs": [
        {
          "internalType": "uint256",
          "name": "tokenId",
          "type": "uint256"
        }
      ],
      "name": "tokenURI",
      "outputs": [
        {
          "internalType": "string",
          "name": "",
          "type": "string"
        }
      ],
      "stateMutability": "view",
      "type": "function"
    }
  ],
  "bytecode": "0x608060405260016008553480156200001657600080fd5b506040518060400160405280600781526020017f4d79546f6b656e000000000000000000000000000000000000000000000000008152506040518060400160405280600381526020017f4d544b000000000000000000000000000000000000000000000000000000000081525081600090805190602001906200009b929190620001ab565b508060019080519060200190620000b4929190620001ab565b505050620000d7620000cb620000dd60201b60201c565b620000e560201b60201c565b620002c0565b600033905090565b6000600760009054906101000a900473ffffffffffffffffffffffffffffffffffffffff16905081600760006101000a81548173ffffffffffffffffffffffffffffffffffffffff021916908373ffffffffffffffffffffffffffffffffffffffff1602179055508173ffffffffffffffffffffffffffffffffffffffff168173ffffffffffffffffffffffffffffffffffffffff167f8be0079c531659141344cd1fd0a4f28419497f9722a3daafe3b4186f6b6457e060405160405180910390a35050565b828054620001b9906200025b565b90600052602060002090601f016020900481019282620001dd576000855562000229565b82601f10620001f857805160ff191683800117855562000229565b8280016001018555821562000229579182015b82811115620002285782518255916020019190600101906200020b565b5b5090506200023891906200023c565b5090565b5b80821115620002575760008160009055506001016200023d565b5090565b600060028204905060018216806200027457607f821691505b602082108114156200028b576200028a62000291565b5b50919050565b7f4e487b7100000000000000000000000000000000000000000000000000000000600052602260045260246000fd5b6130a580620002d06000396000f3fe608060405234801561001057600080fd5b506004361061010b5760003560e01c8063715018a6116100a2578063b88d4fde11610071578063b88d4fde146102a4578063c87b56dd146102c0578063cd279c7c146102f0578063e985e9c51461030c578063f2fde38b1461033c5761010b565b8063715018a6146102425780638da5cb5b1461024c57806395d89b411461026a578063a22cb465146102885761010b565b806323b872dd116100de57806323b872dd146101aa57806342842e0e146101c65780636352211e146101e257806370a08231146102125761010b565b806301ffc9a71461011057806306fdde0314610140578063081812fc1461015e578063095ea7b31461018e575b600080fd5b61012a6004803603810190610125919061201d565b610358565b6040516101379190612469565b60405180910390f35b61014861043a565b6040516101559190612484565b60405180910390f35b6101786004803603810190610173919061206f565b6104cc565b6040516101859190612402565b60405180910390f35b6101a860048036038101906101a39190611f7a565b610551565b005b6101c460048036038101906101bf9190611e74565b610669565b005b6101e060048036038101906101db9190611e74565b6106c9565b005b6101fc60048036038101906101f7919061206f565b6106e9565b6040516102099190612402565b60405180910390f35b61022c60048036038101906102279190611e0f565b61079b565b60405161023991906126e6565b60405180910390f35b61024a610853565b005b6102546108db565b6040516102619190612402565b60405180910390f35b610272610905565b60405161027f9190612484565b60405180910390f35b6102a2600480360381019061029d9190611f3e565b610997565b005b6102be60048036038101906102b99190611ec3565b6109ad565b005b6102da60048036038101906102d5919061206f565b610a0f565b6040516102e79190612484565b60405180910390f35b61030a60048036038101906103059190611fb6565b610a21565b005b61032660048036038101906103219190611e38565b610af4565b6040516103339190612469565b60405180910390f35b61035660048036038101906103519190611e0f565b610b88565b005b60007f80ac58cd000000000000000000000000000000000000000000000000000000007bffffffffffffffffffffffffffffffffffffffffffffffffffffffff1916827bffffffffffffffffffffffffffffffffffffffffffffffffffffffff1916148061042357507f5b5e139f000000000000000000000000000000000000000000000000000000007bffffffffffffffffffffffffffffffffffffffffffffffffffffffff1916827bffffffffffffffffffffffffffffffffffffffffffffffffffffffff1916145b80610433575061043282610c80565b5b9050919050565b60606000805461044990612949565b80601f016020809104026020016040519081016040528092919081815260200182805461047590612949565b80156104c25780601f10610497576101008083540402835291602001916104c2565b820191906000526020600020905b8154815290600101906020018083116104a557829003601f168201915b5050505050905090565b60006104d782610cea565b610516576040517f08c379a000000000000000000000000000000000000000000000000000000000815260040161050d90612646565b60405180910390fd5b6004600083815260200190815260200160002060009054906101000a900473ffffffffffffffffffffffffffffffffffffffff169050919050565b600061055c826106e9565b90508073ffffffffffffffffffffffffffffffffffffffff168373ffffffffffffffffffffffffffffffffffffffff1614156105cd576040517f08c379a00000000000000000000000000000000000000000000000000000000081526004016105c4906126a6565b60405180910390fd5b8073ffffffffffffffffffffffffffffffffffffffff166105ec610d56565b73ffffffffffffffffffffffffffffffffffffffff16148061061b575061061a81610615610d56565b610af4565b5b61065a576040517f08c379a000000000000000000000000000000000000000000000000000000000815260040161065190612586565b60405180910390fd5b6106648383610d5e565b505050565b61067a610674610d56565b82610e17565b6106b9576040517f08c379a00000000000000000000000000000000000000000000000000000000081526004016106b0906126c6565b60405180910390fd5b6106c4838383610ef5565b505050565b6106e4838383604051806020016040528060008152506109ad565b505050565b6000806002600084815260200190815260200160002060009054906101000a900473ffffffffffffffffffffffffffffffffffffffff169050600073ffffffffffffffffffffffffffffffffffffffff168173ffffffffffffffffffffffffffffffffffffffff161415610792576040517f08c379a0000000000000000000000000000000000000000000000000000000008152600401610789906125c6565b60405180910390fd5b80915050919050565b60008073ffffffffffffffffffffffffffffffffffffffff168273ffffffffffffffffffffffffffffffffffffffff16141561080c576040517f08c379a0000000000000000000000000000000000000000000000000000000008152600401610803906125a6565b60405180910390fd5b600360008373ffffffffffffffffffffffffffffffffffffffff1673ffffffffffffffffffffffffffffffffffffffff168152602001908152602001600020549050919050565b61085b610d56565b73ffffffffffffffffffffffffffffffffffffffff166108796108db565b73ffffffffffffffffffffffffffffffffffffffff16146108cf576040517f08c379a00000000000000000000000000000000000000000000000000000000081526004016108c690612666565b60405180910390fd5b6108d9600061115c565b565b6000600760009054906101000a900473ffffffffffffffffffffffffffffffffffffffff16905090565b60606001805461091490612949565b80601f016020809104026020016040519081016040528092919081815260200182805461094090612949565b801561098d5780601f106109625761010080835404028352916020019161098d565b820191906000526020600020905b81548152906001019060200180831161097057829003601f168201915b5050505050905090565b6109a96109a2610d56565b8383611222565b5050565b6109be6109b8610d56565b83610e17565b6109fd576040517f08c379a00000000000000000000000000000000000000000000000000000000081526004016109f4906126c6565b60405180910390fd5b610a098484848461138f565b50505050565b6060610a1a826113eb565b9050919050565b610a29610d56565b73ffffffffffffffffffffffffffffffffffffffff16610a476108db565b73ffffffffffffffffffffffffffffffffffffffff1614610a9d576040517f08c379a0000000000000000000000000000000000000000000000000000000008152600401610a9490612666565b60405180910390fd5b60005b828160ff161015610aee57610ab78460085461153d565b610ac36008548361155b565b60086000815480929190610ad6906129ac565b91905055508080610ae6906129f5565b915050610aa0565b50505050565b6000600560008473ffffffffffffffffffffffffffffffffffffffff1673ffffffffffffffffffffffffffffffffffffffff16815260200190815260200160002060008373ffffffffffffffffffffffffffffffffffffffff1673ffffffffffffffffffffffffffffffffffffffff16815260200190815260200160002060009054906101000a900460ff16905092915050565b610b90610d56565b73ffffffffffffffffffffffffffffffffffffffff16610bae6108db565b73ffffffffffffffffffffffffffffffffffffffff1614610c04576040517f08c379a0000000000000000000000000000000000000000000000000000000008152600401610bfb90612666565b60405180910390fd5b600073ffffffffffffffffffffffffffffffffffffffff168173ffffffffffffffffffffffffffffffffffffffff161415610c74576040517f08c379a0000000000000000000000000000000000000000000000000000000008152600401610c6b906124c6565b60405180910390fd5b610c7d8161115c565b50565b60007f01ffc9a7000000000000000000000000000000000000000000000000000000007bffffffffffffffffffffffffffffffffffffffffffffffffffffffff1916827bffffffffffffffffffffffffffffffffffffffffffffffffffffffff1916149050919050565b60008073ffffffffffffffffffffffffffffffffffffffff166002600084815260200190815260200160002060009054906101000a900473ffffffffffffffffffffffffffffffffffffffff1673ffffffffffffffffffffffffffffffffffffffff1614159050919050565b600033905090565b816004600083815260200190815260200160002060006101000a81548173ffffffffffffffffffffffffffffffffffffffff021916908373ffffffffffffffffffffffffffffffffffffffff160217905550808273ffffffffffffffffffffffffffffffffffffffff16610dd1836106e9565b73ffffffffffffffffffffffffffffffffffffffff167f8c5be1e5ebec7d5bd14f71427d1e84f3dd0314c0f7b2291e5b200ac8c7c3b92560405160405180910390a45050565b6000610e2282610cea565b610e61576040517f08c379a0000000000000000000000000000000000000000000000000000000008152600401610e5890612566565b60405180910390fd5b6000610e6c836106e9565b90508073ffffffffffffffffffffffffffffffffffffffff168473ffffffffffffffffffffffffffffffffffffffff161480610edb57508373ffffffffffffffffffffffffffffffffffffffff16610ec3846104cc565b73ffffffffffffffffffffffffffffffffffffffff16145b80610eec5750610eeb8185610af4565b5b91505092915050565b8273ffffffffffffffffffffffffffffffffffffffff16610f15826106e9565b73ffffffffffffffffffffffffffffffffffffffff1614610f6b576040517f08c379a0000000000000000000000000000000000000000000000000000000008152600401610f62906124e6565b60405180910390fd5b600073ffffffffffffffffffffffffffffffffffffffff168273ffffffffffffffffffffffffffffffffffffffff161415610fdb576040517f08c379a0000000000000000000000000000000000000000000000000000000008152600401610fd290612526565b60405180910390fd5b610fe68383836115cf565b610ff1600082610d5e565b6001600360008573ffffffffffffffffffffffffffffffffffffffff1673ffffffffffffffffffffffffffffffffffffffff16815260200190815260200160002060008282546110419190612852565b925050819055506001600360008473ffffffffffffffffffffffffffffffffffffffff1673ffffffffffffffffffffffffffffffffffffffff168152602001908152602001600020600082825461109891906127cb565b92505081905550816002600083815260200190815260200160002060006101000a81548173ffffffffffffffffffffffffffffffffffffffff021916908373ffffffffffffffffffffffffffffffffffffffff160217905550808273ffffffffffffffffffffffffffffffffffffffff168473ffffffffffffffffffffffffffffffffffffffff167fddf252ad1be2c89b69c2b068fc378daa952ba7f163c4a11628f55a4df523b3ef60405160405180910390a46111578383836115d4565b505050565b6000600760009054906101000a900473ffffffffffffffffffffffffffffffffffffffff16905081600760006101000a81548173ffffffffffffffffffffffffffffffffffffffff021916908373ffffffffffffffffffffffffffffffffffffffff1602179055508173ffffffffffffffffffffffffffffffffffffffff168173ffffffffffffffffffffffffffffffffffffffff167f8be0079c531659141344cd1fd0a4f28419497f9722a3daafe3b4186f6b6457e060405160405180910390a35050565b8173ffffffffffffffffffffffffffffffffffffffff168373ffffffffffffffffffffffffffffffffffffffff161415611291576040517f08c379a000000000000000000000000000000000000000000000000000000000815260040161128890612546565b60405180910390fd5b80600560008573ffffffffffffffffffffffffffffffffffffffff1673ffffffffffffffffffffffffffffffffffffffff16815260200190815260200160002060008473ffffffffffffffffffffffffffffffffffffffff1673ffffffffffffffffffffffffffffffffffffffff16815260200190815260200160002060006101000a81548160ff0219169083151502179055508173ffffffffffffffffffffffffffffffffffffffff168373ffffffffffffffffffffffffffffffffffffffff167f17307eab39ab6107e8899845ad3d59bd9653f200f220920489ca2b5937696c31836040516113829190612469565b60405180910390a3505050565b61139a848484610ef5565b6113a6848484846115d9565b6113e5576040517f08c379a00000000000000000000000000000000000000000000000000000000081526004016113dc906124a6565b60405180910390fd5b50505050565b60606113f682610cea565b611435576040517f08c379a000000000000000000000000000000000000000000000000000000000815260040161142c90612626565b60405180910390fd5b600060066000848152602001908152602001600020805461145590612949565b80601f016020809104026020016040519081016040528092919081815260200182805461148190612949565b80156114ce5780601f106114a3576101008083540402835291602001916114ce565b820191906000526020600020905b8154815290600101906020018083116114b157829003601f168201915b5050505050905060006114df611770565b90506000815114156114f5578192505050611538565b60008251111561152a5780826040516020016115129291906123de565b60405160208183030381529060405292505050611538565b61153384611787565b925050505b919050565b61155782826040518060200160405280600081525061182e565b5050565b61156482610cea565b6115a3576040517f08c379a000000000000000000000000000000000000000000000000000000000815260040161159a906125e6565b60405180910390fd5b806006600084815260200190815260200160002090805190602001906115ca929190611c33565b505050565b505050565b505050565b60006115fa8473ffffffffffffffffffffffffffffffffffffffff16611889565b15611763578373ffffffffffffffffffffffffffffffffffffffff1663150b7a02611623610d56565b8786866040518563ffffffff1660e01b8152600401611645949392919061241d565b602060405180830381600087803b15801561165f57600080fd5b505af192505050801561169057506040513d601f19601f8201168201806040525081019061168d9190612046565b60015b611713573d80600081146116c0576040519150601f19603f3d011682016040523d82523d6000602084013e6116c5565b606091505b5060008151141561170b576040517f08c379a0000000000000000000000000000000000000000000000000000000008152600401611702906124a6565b60405180910390fd5b805181602001fd5b63150b7a0260e01b7bffffffffffffffffffffffffffffffffffffffffffffffffffffffff1916817bffffffffffffffffffffffffffffffffffffffffffffffffffffffff191614915050611768565b600190505b949350505050565b606060405180602001604052806000815250905090565b606061179282610cea565b6117d1576040517f08c379a00000000000000000000000000000000000000000000000000000000081526004016117c890612686565b60405180910390fd5b60006117db611770565b905060008151116117fb5760405180602001604052806000815250611826565b80611805846118ac565b6040516020016118169291906123de565b6040516020818303038152906040525b915050919050565b6118388383611a59565b61184560008484846115d9565b611884576040517f08c379a000000000000000000000000000000000000000000000000000000000815260040161187b906124a6565b60405180910390fd5b505050565b6000808273ffffffffffffffffffffffffffffffffffffffff163b119050919050565b606060008214156118f4576040518060400160405280600181526020017f30000000000000000000000000000000000000000000000000000000000000008152509050611a54565b600082905060005b6000821461192657808061190f906129ac565b915050600a8261191f9190612821565b91506118fc565b60008167ffffffffffffffff811115611968577f4e487b7100000000000000000000000000000000000000000000000000000000600052604160045260246000fd5b6040519080825280601f01601f19166020018201604052801561199a5781602001600182028036833780820191505090505b5090505b60008514611a4d576001826119b39190612852565b9150600a856119c29190612a1f565b60306119ce91906127cb565b60f81b818381518110611a0a577f4e487b7100000000000000000000000000000000000000000000000000000000600052603260045260246000fd5b60200101907effffffffffffffffffffffffffffffffffffffffffffffffffffffffffffff1916908160001a905350600a85611a469190612821565b945061199e565b8093505050505b919050565b600073ffffffffffffffffffffffffffffffffffffffff168273ffffffffffffffffffffffffffffffffffffffff161415611ac9576040517f08c379a0000000000000000000000000000000000000000000000000000000008152600401611ac090612606565b60405180910390fd5b611ad281610cea565b15611b12576040517f08c379a0000000000000000000000000000000000000000000000000000000008152600401611b0990612506565b60405180910390fd5b611b1e600083836115cf565b6001600360008473ffffffffffffffffffffffffffffffffffffffff1673ffffffffffffffffffffffffffffffffffffffff1681526020019081526020016000206000828254611b6e91906127cb565b92505081905550816002600083815260200190815260200160002060006101000a81548173ffffffffffffffffffffffffffffffffffffffff021916908373ffffffffffffffffffffffffffffffffffffffff160217905550808273ffffffffffffffffffffffffffffffffffffffff16600073ffffffffffffffffffffffffffffffffffffffff167fddf252ad1be2c89b69c2b068fc378daa952ba7f163c4a11628f55a4df523b3ef60405160405180910390a4611c2f600083836115d4565b5050565b828054611c3f90612949565b90600052602060002090601f016020900481019282611c615760008555611ca8565b82601f10611c7a57805160ff1916838001178555611ca8565b82800160010185558215611ca8579182015b82811115611ca7578251825591602001919060010190611c8c565b5b509050611cb59190611cb9565b5090565b5b80821115611cd2576000816000905550600101611cba565b5090565b6000611ce9611ce484612726565b612701565b905082815260208101848484011115611d0157600080fd5b611d0c848285612907565b509392505050565b6000611d27611d2284612757565b612701565b905082815260208101848484011115611d3f57600080fd5b611d4a848285612907565b509392505050565b600081359050611d6181613013565b92915050565b600081359050611d768161302a565b92915050565b600081359050611d8b81613041565b92915050565b600081519050611da081613041565b92915050565b600082601f830112611db757600080fd5b8135611dc7848260208601611cd6565b91505092915050565b600082601f830112611de157600080fd5b8135611df1848260208601611d14565b91505092915050565b600081359050611e0981613058565b92915050565b600060208284031215611e2157600080fd5b6000611e2f84828501611d52565b91505092915050565b60008060408385031215611e4b57600080fd5b6000611e5985828601611d52565b9250506020611e6a85828601611d52565b9150509250929050565b600080600060608486031215611e8957600080fd5b6000611e9786828701611d52565b9350506020611ea886828701611d52565b9250506040611eb986828701611dfa565b9150509250925092565b60008060008060808587031215611ed957600080fd5b6000611ee787828801611d52565b9450506020611ef887828801611d52565b9350506040611f0987828801611dfa565b925050606085013567ffffffffffffffff811115611f2657600080fd5b611f3287828801611da6565b91505092959194509250565b60008060408385031215611f5157600080fd5b6000611f5f85828601611d52565b9250506020611f7085828601611d67565b9150509250929050565b60008060408385031215611f8d57600080fd5b6000611f9b85828601611d52565b9250506020611fac85828601611dfa565b9150509250929050565b600080600060608486031215611fcb57600080fd5b6000611fd986828701611d52565b9350506020611fea86828701611dfa565b925050604084013567ffffffffffffffff81111561200757600080fd5b61201386828701611dd0565b9150509250925092565b60006020828403121561202f57600080fd5b600061203d84828501611d7c565b91505092915050565b60006020828403121561205857600080fd5b600061206684828501611d91565b91505092915050565b60006020828403121561208157600080fd5b600061208f84828501611dfa565b91505092915050565b6120a181612886565b82525050565b6120b081612898565b82525050565b60006120c182612788565b6120cb818561279e565b93506120db818560208601612916565b6120e481612b0c565b840191505092915050565b60006120fa82612793565b61210481856127af565b9350612114818560208601612916565b61211d81612b0c565b840191505092915050565b600061213382612793565b61213d81856127c0565b935061214d818560208601612916565b80840191505092915050565b60006121666032836127af565b915061217182612b1d565b604082019050919050565b60006121896026836127af565b915061219482612b6c565b604082019050919050565b60006121ac6025836127af565b91506121b782612bbb565b604082019050919050565b60006121cf601c836127af565b91506121da82612c0a565b602082019050919050565b60006121f26024836127af565b91506121fd82612c33565b604082019050919050565b60006122156019836127af565b915061222082612c82565b602082019050919050565b6000612238602c836127af565b915061224382612cab565b604082019050919050565b600061225b6038836127af565b915061226682612cfa565b604082019050919050565b600061227e602a836127af565b915061228982612d49565b604082019050919050565b60006122a16029836127af565b91506122ac82612d98565b604082019050919050565b60006122c4602e836127af565b91506122cf82612de7565b604082019050919050565b60006122e76020836127af565b91506122f282612e36565b602082019050919050565b600061230a6031836127af565b915061231582612e5f565b604082019050919050565b600061232d602c836127af565b915061233882612eae565b604082019050919050565b60006123506020836127af565b915061235b82612efd565b602082019050919050565b6000612373602f836127af565b915061237e82612f26565b604082019050919050565b60006123966021836127af565b91506123a182612f75565b604082019050919050565b60006123b96031836127af565b91506123c482612fc4565b604082019050919050565b6123d8816128f0565b82525050565b60006123ea8285612128565b91506123f68284612128565b91508190509392505050565b60006020820190506124176000830184612098565b92915050565b60006080820190506124326000830187612098565b61243f6020830186612098565b61244c60408301856123cf565b818103606083015261245e81846120b6565b905095945050505050565b600060208201905061247e60008301846120a7565b92915050565b6000602082019050818103600083015261249e81846120ef565b905092915050565b600060208201905081810360008301526124bf81612159565b9050919050565b600060208201905081810360008301526124df8161217c565b9050919050565b600060208201905081810360008301526124ff8161219f565b9050919050565b6000602082019050818103600083015261251f816121c2565b9050919050565b6000602082019050818103600083015261253f816121e5565b9050919050565b6000602082019050818103600083015261255f81612208565b9050919050565b6000602082019050818103600083015261257f8161222b565b9050919050565b6000602082019050818103600083015261259f8161224e565b9050919050565b600060208201905081810360008301526125bf81612271565b9050919050565b600060208201905081810360008301526125df81612294565b9050919050565b600060208201905081810360008301526125ff816122b7565b9050919050565b6000602082019050818103600083015261261f816122da565b9050919050565b6000602082019050818103600083015261263f816122fd565b9050919050565b6000602082019050818103600083015261265f81612320565b9050919050565b6000602082019050818103600083015261267f81612343565b9050919050565b6000602082019050818103600083015261269f81612366565b9050919050565b600060208201905081810360008301526126bf81612389565b9050919050565b600060208201905081810360008301526126df816123ac565b9050919050565b60006020820190506126fb60008301846123cf565b92915050565b600061270b61271c565b9050612717828261297b565b919050565b6000604051905090565b600067ffffffffffffffff82111561274157612740612add565b5b61274a82612b0c565b9050602081019050919050565b600067ffffffffffffffff82111561277257612771612add565b5b61277b82612b0c565b9050602081019050919050565b600081519050919050565b600081519050919050565b600082825260208201905092915050565b600082825260208201905092915050565b600081905092915050565b60006127d6826128f0565b91506127e1836128f0565b9250827fffffffffffffffffffffffffffffffffffffffffffffffffffffffffffffffff0382111561281657612815612a50565b5b828201905092915050565b600061282c826128f0565b9150612837836128f0565b92508261284757612846612a7f565b5b828204905092915050565b600061285d826128f0565b9150612868836128f0565b92508282101561287b5761287a612a50565b5b828203905092915050565b6000612891826128d0565b9050919050565b60008115159050919050565b60007fffffffff0000000000000000000000000000000000000000000000000000000082169050919050565b600073ffffffffffffffffffffffffffffffffffffffff82169050919050565b6000819050919050565b600060ff82169050919050565b82818337600083830152505050565b60005b83811015612934578082015181840152602081019050612919565b83811115612943576000848401525b50505050565b6000600282049050600182168061296157607f821691505b6020821081141561297557612974612aae565b5b50919050565b61298482612b0c565b810181811067ffffffffffffffff821117156129a3576129a2612add565b5b80604052505050565b60006129b7826128f0565b91507fffffffffffffffffffffffffffffffffffffffffffffffffffffffffffffffff8214156129ea576129e9612a50565b5b600182019050919050565b6000612a00826128fa565b915060ff821415612a1457612a13612a50565b5b600182019050919050565b6000612a2a826128f0565b9150612a35836128f0565b925082612a4557612a44612a7f565b5b828206905092915050565b7f4e487b7100000000000000000000000000000000000000000000000000000000600052601160045260246000fd5b7f4e487b7100000000000000000000000000000000000000000000000000000000600052601260045260246000fd5b7f4e487b7100000000000000000000000000000000000000000000000000000000600052602260045260246000fd5b7f4e487b7100000000000000000000000000000000000000000000000000000000600052604160045260246000fd5b6000601f19601f8301169050919050565b7f4552433732313a207472616e7366657220746f206e6f6e20455243373231526560008201527f63656976657220696d706c656d656e7465720000000000000000000000000000602082015250565b7f4f776e61626c653a206e6577206f776e657220697320746865207a65726f206160008201527f6464726573730000000000000000000000000000000000000000000000000000602082015250565b7f4552433732313a207472616e736665722066726f6d20696e636f72726563742060008201527f6f776e6572000000000000000000000000000000000000000000000000000000602082015250565b7f4552433732313a20746f6b656e20616c7265616479206d696e74656400000000600082015250565b7f4552433732313a207472616e7366657220746f20746865207a65726f2061646460008201527f7265737300000000000000000000000000000000000000000000000000000000602082015250565b7f4552433732313a20617070726f766520746f2063616c6c657200000000000000600082015250565b7f4552433732313a206f70657261746f7220717565727920666f72206e6f6e657860008201527f697374656e7420746f6b656e0000000000000000000000000000000000000000602082015250565b7f4552433732313a20617070726f76652063616c6c6572206973206e6f74206f7760008201527f6e6572206e6f7220617070726f76656420666f7220616c6c0000000000000000602082015250565b7f4552433732313a2062616c616e636520717565727920666f7220746865207a6560008201527f726f206164647265737300000000000000000000000000000000000000000000602082015250565b7f4552433732313a206f776e657220717565727920666f72206e6f6e657869737460008201527f656e7420746f6b656e0000000000000000000000000000000000000000000000602082015250565b7f45524337323155524953746f726167653a2055524920736574206f66206e6f6e60008201527f6578697374656e7420746f6b656e000000000000000000000000000000000000602082015250565b7f4552433732313a206d696e7420746f20746865207a65726f2061646472657373600082015250565b7f45524337323155524953746f726167653a2055524920717565727920666f722060008201527f6e6f6e6578697374656e7420746f6b656e000000000000000000000000000000602082015250565b7f4552433732313a20617070726f76656420717565727920666f72206e6f6e657860008201527f697374656e7420746f6b656e0000000000000000000000000000000000000000602082015250565b7f4f776e61626c653a2063616c6c6572206973206e6f7420746865206f776e6572600082015250565b7f4552433732314d657461646174613a2055524920717565727920666f72206e6f60008201527f6e6578697374656e7420746f6b656e0000000000000000000000000000000000602082015250565b7f4552433732313a20617070726f76616c20746f2063757272656e74206f776e6560008201527f7200000000000000000000000000000000000000000000000000000000000000602082015250565b7f4552433732313a207472616e736665722063616c6c6572206973206e6f74206f60008201527f776e6572206e6f7220617070726f766564000000000000000000000000000000602082015250565b61301c81612886565b811461302757600080fd5b50565b61303381612898565b811461303e57600080fd5b50565b61304a816128a4565b811461305557600080fd5b50565b613061816128f0565b811461306c57600080fd5b5056fea2646970667358221220ff947639d036f76ab6d185e9767a4d5d395729609bc1250dbdc48ff5a3e0f95d64736f6c63430008020033",
  "immutableReferences": {},
  "source": " // SPDX-License-Identifier: MIT\r\npragma solidity ^0.8.2;\r\n\r\nimport \"@openzeppelin/contracts/token/ERC721/ERC721.sol\";\r\nimport \"@openzeppelin/contracts/token/ERC721/extensions/ERC721URIStorage.sol\";\r\nimport \"@openzeppelin/contracts/access/Ownable.sol\";\r\n\r\ncontract MyToken is ERC721, ERC721URIStorage, Ownable {\r\n    uint256 lastTokenId=1;\r\n\r\n    constructor() ERC721(\"MyToken\", \"MTK\") {}\r\n\r\n    function safeMint(address to,uint amount, string memory uri) public onlyOwner {\r\n         for(uint8 i = 0; i<amount; i++){\r\n         \r\n        _safeMint(to, lastTokenId);\r\n        _setTokenURI(lastTokenId, uri);\r\n        lastTokenId ++;\r\n        }\r\n    }\r\n\r\n    // The following functions are overrides required by Solidity.\r\n\r\n    function _burn(uint256 tokenId) internal override(ERC721, ERC721URIStorage) {\r\n        super._burn(tokenId);\r\n    }\r\n\r\n    function tokenURI(uint256 tokenId)\r\n        public\r\n        view\r\n        override(ERC721, ERC721URIStorage)\r\n        returns (string memory)\r\n    {\r\n        return super.tokenURI(tokenId);\r\n    }\r\n}",
  "sourcePath": "C:\\BigImmersiive\\3rdTask\\contracts\\NFT.sol",
  "compiler": {
    "name": "solc",
    "version": "0.8.2+commit.661d1103.Emscripten.clang"
  },
  "schemaVersion": "3.4.6",
  "updatedAt": "2022-04-08T11:36:49.628Z",
  "devdoc": {
    "kind": "dev",
    "methods": {
      "approve(address,uint256)": {
        "details": "See {IERC721-approve}."
      },
      "balanceOf(address)": {
        "details": "See {IERC721-balanceOf}."
      },
      "getApproved(uint256)": {
        "details": "See {IERC721-getApproved}."
      },
      "isApprovedForAll(address,address)": {
        "details": "See {IERC721-isApprovedForAll}."
      },
      "name()": {
        "details": "See {IERC721Metadata-name}."
      },
      "owner()": {
        "details": "Returns the address of the current owner."
      },
      "ownerOf(uint256)": {
        "details": "See {IERC721-ownerOf}."
      },
      "renounceOwnership()": {
        "details": "Leaves the contract without owner. It will not be possible to call `onlyOwner` functions anymore. Can only be called by the current owner. NOTE: Renouncing ownership will leave the contract without an owner, thereby removing any functionality that is only available to the owner."
      },
      "safeTransferFrom(address,address,uint256)": {
        "details": "See {IERC721-safeTransferFrom}."
      },
      "safeTransferFrom(address,address,uint256,bytes)": {
        "details": "See {IERC721-safeTransferFrom}."
      },
      "setApprovalForAll(address,bool)": {
        "details": "See {IERC721-setApprovalForAll}."
      },
      "supportsInterface(bytes4)": {
        "details": "See {IERC165-supportsInterface}."
      },
      "symbol()": {
        "details": "See {IERC721Metadata-symbol}."
      },
      "transferFrom(address,address,uint256)": {
        "details": "See {IERC721-transferFrom}."
      },
      "transferOwnership(address)": {
        "details": "Transfers ownership of the contract to a new account (`newOwner`). Can only be called by the current owner."
      }
    },
    "version": 1
  },
  "userdoc": {
    "kind": "user",
    "methods": {},
    "version": 1
  }
}