{
  "contractName": "NFT",
  "abi": [
    {
      "inputs": [],
      "stateMutability": "nonpayable",
      "type": "constructor"
    },
    {
      "anonymous": false,
      "inputs": [
        {
          "indexed": true,
          "internalType": "address",
          "name": "owner",
          "type": "address"
        },
        {
          "indexed": true,
          "internalType": "address",
          "name": "approved",
          "type": "address"
        },
        {
          "indexed": true,
          "internalType": "uint256",
          "name": "tokenId",
          "type": "uint256"
        }
      ],
      "name": "Approval",
      "type": "event"
    },
    {
      "anonymous": false,
      "inputs": [
        {
          "indexed": true,
          "internalType": "address",
          "name": "owner",
          "type": "address"
        },
        {
          "indexed": true,
          "internalType": "address",
          "name": "operator",
          "type": "address"
        },
        {
          "indexed": false,
          "internalType": "bool",
          "name": "approved",
          "type": "bool"
        }
      ],
      "name": "ApprovalForAll",
      "type": "event"
    },
    {
      "anonymous": false,
      "inputs": [
        {
          "indexed": true,
          "internalType": "address",
          "name": "previousOwner",
          "type": "address"
        },
        {
          "indexed": true,
          "internalType": "address",
          "name": "newOwner",
          "type": "address"
        }
      ],
      "name": "OwnershipTransferred",
      "type": "event"
    },
    {
      "anonymous": false,
      "inputs": [
        {
          "indexed": true,
          "internalType": "address",
          "name": "from",
          "type": "address"
        },
        {
          "indexed": true,
          "internalType": "address",
          "name": "to",
          "type": "address"
        },
        {
          "indexed": true,
          "internalType": "uint256",
          "name": "tokenId",
          "type": "uint256"
        }
      ],
      "name": "Transfer",
      "type": "event"
    },
    {
      "inputs": [
        {
          "internalType": "address",
          "name": "to",
          "type": "address"
        },
        {
          "internalType": "uint256",
          "name": "tokenId",
          "type": "uint256"
        }
      ],
      "name": "approve",
      "outputs": [],
      "stateMutability": "nonpayable",
      "type": "function"
    },
    {
      "inputs": [
        {
          "internalType": "address",
          "name": "owner",
          "type": "address"
        }
      ],
      "name": "balanceOf",
      "outputs": [
        {
          "internalType": "uint256",
          "name": "",
          "type": "uint256"
        }
      ],
      "stateMutability": "view",
      "type": "function",
      "constant": true
    },
    {
      "inputs": [],
      "name": "firstBaseUri",
      "outputs": [
        {
          "internalType": "string",
          "name": "",
          "type": "string"
        }
      ],
      "stateMutability": "view",
      "type": "function",
      "constant": true
    },
    {
      "inputs": [
        {
          "internalType": "uint256",
          "name": "tokenId",
          "type": "uint256"
        }
      ],
      "name": "getApproved",
      "outputs": [
        {
          "internalType": "address",
          "name": "",
          "type": "address"
        }
      ],
      "stateMutability": "view",
      "type": "function",
      "constant": true
    },
    {
      "inputs": [
        {
          "internalType": "address",
          "name": "owner",
          "type": "address"
        },
        {
          "internalType": "address",
          "name": "operator",
          "type": "address"
        }
      ],
      "name": "isApprovedForAll",
      "outputs": [
        {
          "internalType": "bool",
          "name": "",
          "type": "bool"
        }
      ],
      "stateMutability": "view",
      "type": "function",
      "constant": true
    },
    {
      "inputs": [],
      "name": "name",
      "outputs": [
        {
          "internalType": "string",
          "name": "",
          "type": "string"
        }
      ],
      "stateMutability": "view",
      "type": "function",
      "constant": true
    },
    {
      "inputs": [],
      "name": "owner",
      "outputs": [
        {
          "internalType": "address",
          "name": "",
          "type": "address"
        }
      ],
      "stateMutability": "view",
      "type": "function",
      "constant": true
    },
    {
      "inputs": [
        {
          "internalType": "uint256",
          "name": "tokenId",
          "type": "uint256"
        }
      ],
      "name": "ownerOf",
      "outputs": [
        {
          "internalType": "address",
          "name": "",
          "type": "address"
        }
      ],
      "stateMutability": "view",
      "type": "function",
      "constant": true
    },
    {
      "inputs": [],
      "name": "renounceOwnership",
      "outputs": [],
      "stateMutability": "nonpayable",
      "type": "function"
    },
    {
      "inputs": [
        {
          "internalType": "address",
          "name": "from",
          "type": "address"
        },
        {
          "internalType": "address",
          "name": "to",
          "type": "address"
        },
        {
          "internalType": "uint256",
          "name": "tokenId",
          "type": "uint256"
        }
      ],
      "name": "safeTransferFrom",
      "outputs": [],
      "stateMutability": "nonpayable",
      "type": "function"
    },
    {
      "inputs": [
        {
          "internalType": "address",
          "name": "from",
          "type": "address"
        },
        {
          "internalType": "address",
          "name": "to",
          "type": "address"
        },
        {
          "internalType": "uint256",
          "name": "tokenId",
          "type": "uint256"
        },
        {
          "internalType": "bytes",
          "name": "_data",
          "type": "bytes"
        }
      ],
      "name": "safeTransferFrom",
      "outputs": [],
      "stateMutability": "nonpayable",
      "type": "function"
    },
    {
      "inputs": [],
      "name": "secondBaseUri",
      "outputs": [
        {
          "internalType": "string",
          "name": "",
          "type": "string"
        }
      ],
      "stateMutability": "view",
      "type": "function",
      "constant": true
    },
    {
      "inputs": [
        {
          "internalType": "address",
          "name": "operator",
          "type": "address"
        },
        {
          "internalType": "bool",
          "name": "approved",
          "type": "bool"
        }
      ],
      "name": "setApprovalForAll",
      "outputs": [],
      "stateMutability": "nonpayable",
      "type": "function"
    },
    {
      "inputs": [
        {
          "internalType": "bytes4",
          "name": "interfaceId",
          "type": "bytes4"
        }
      ],
      "name": "supportsInterface",
      "outputs": [
        {
          "internalType": "bool",
          "name": "",
          "type": "bool"
        }
      ],
      "stateMutability": "view",
      "type": "function",
      "constant": true
    },
    {
      "inputs": [],
      "name": "symbol",
      "outputs": [
        {
          "internalType": "string",
          "name": "",
          "type": "string"
        }
      ],
      "stateMutability": "view",
      "type": "function",
      "constant": true
    },
    {
      "inputs": [],
      "name": "thirdBaseUri",
      "outputs": [
        {
          "internalType": "string",
          "name": "",
          "type": "string"
        }
      ],
      "stateMutability": "view",
      "type": "function",
      "constant": true
    },
    {
      "inputs": [
        {
          "internalType": "address",
          "name": "from",
          "type": "address"
        },
        {
          "internalType": "address",
          "name": "to",
          "type": "address"
        },
        {
          "internalType": "uint256",
          "name": "tokenId",
          "type": "uint256"
        }
      ],
      "name": "transferFrom",
      "outputs": [],
      "stateMutability": "nonpayable",
      "type": "function"
    },
    {
      "inputs": [
        {
          "internalType": "address",
          "name": "newOwner",
          "type": "address"
        }
      ],
      "name": "transferOwnership",
      "outputs": [],
      "stateMutability": "nonpayable",
      "type": "function"
    },
    {
      "inputs": [
        {
          "internalType": "address",
          "name": "to",
          "type": "address"
        },
        {
          "internalType": "uint256",
          "name": "amount",
          "type": "uint256"
        }
      ],
      "name": "safeMint",
      "outputs": [],
      "stateMutability": "nonpayable",
      "type": "function"
    },
    {
      "inputs": [
        {
          "internalType": "uint256",
          "name": "tokenId",
          "type": "uint256"
        }
      ],
      "name": "tokenURI",
      "outputs": [
        {
          "internalType": "string",
          "name": "",
          "type": "string"
        }
      ],
      "stateMutability": "view",
      "type": "function",
      "constant": true
    }
  ],
  "bytecode": "0x608060405260016008556040518060400160405280600d81526020017f7777772e66697273742e636f6d00000000000000000000000000000000000000815250600990805190602001906200005692919062000295565b506040518060400160405280600e81526020017f7777772e7365636f6e642e636f6d000000000000000000000000000000000000815250600a9080519060200190620000a492919062000295565b506040518060400160405280600d81526020017f7777772e74686972642e636f6d00000000000000000000000000000000000000815250600b9080519060200190620000f292919062000295565b503480156200010057600080fd5b506040518060400160405280600781526020017f4d79546f6b656e000000000000000000000000000000000000000000000000008152506040518060400160405280600381526020017f4d544b000000000000000000000000000000000000000000000000000000000081525081600090805190602001906200018592919062000295565b5080600190805190602001906200019e92919062000295565b505050620001c1620001b5620001c760201b60201c565b620001cf60201b60201c565b620003aa565b600033905090565b6000600760009054906101000a900473ffffffffffffffffffffffffffffffffffffffff16905081600760006101000a81548173ffffffffffffffffffffffffffffffffffffffff021916908373ffffffffffffffffffffffffffffffffffffffff1602179055508173ffffffffffffffffffffffffffffffffffffffff168173ffffffffffffffffffffffffffffffffffffffff167f8be0079c531659141344cd1fd0a4f28419497f9722a3daafe3b4186f6b6457e060405160405180910390a35050565b828054620002a39062000345565b90600052602060002090601f016020900481019282620002c7576000855562000313565b82601f10620002e257805160ff191683800117855562000313565b8280016001018555821562000313579182015b8281111562000312578251825591602001919060010190620002f5565b5b50905062000322919062000326565b5090565b5b808211156200034157600081600090555060010162000327565b5090565b600060028204905060018216806200035e57607f821691505b602082108114156200037557620003746200037b565b5b50919050565b7f4e487b7100000000000000000000000000000000000000000000000000000000600052602260045260246000fd5b6134b680620003ba6000396000f3fe608060405234801561001057600080fd5b506004361061012c5760003560e01c8063730bfad8116100ad578063a22cb46511610071578063a22cb4651461031f578063b88d4fde1461033b578063c87b56dd14610357578063e985e9c514610387578063f2fde38b146103b75761012c565b8063730bfad81461028b5780637e46161b146102a95780638da5cb5b146102c757806395d89b41146102e5578063a1448194146103035761012c565b806342842e0e116100f457806342842e0e146101e75780636352211e14610203578063648adfc31461023357806370a0823114610251578063715018a6146102815761012c565b806301ffc9a71461013157806306fdde0314610161578063081812fc1461017f578063095ea7b3146101af57806323b872dd146101cb575b600080fd5b61014b600480360381019061014691906123f3565b6103d3565b6040516101589190612862565b60405180910390f35b6101696104b5565b604051610176919061287d565b60405180910390f35b61019960048036038101906101949190612445565b610547565b6040516101a691906127fb565b60405180910390f35b6101c960048036038101906101c491906123b7565b6105cc565b005b6101e560048036038101906101e091906122b1565b6106e4565b005b61020160048036038101906101fc91906122b1565b610744565b005b61021d60048036038101906102189190612445565b610764565b60405161022a91906127fb565b60405180910390f35b61023b610816565b604051610248919061287d565b60405180910390f35b61026b6004803603810190610266919061224c565b6108a4565b6040516102789190612aff565b60405180910390f35b61028961095c565b005b6102936109e4565b6040516102a0919061287d565b60405180910390f35b6102b1610a72565b6040516102be919061287d565b60405180910390f35b6102cf610b00565b6040516102dc91906127fb565b60405180910390f35b6102ed610b2a565b6040516102fa919061287d565b60405180910390f35b61031d600480360381019061031891906123b7565b610bbc565b005b6103396004803603810190610334919061237b565b610f0f565b005b61035560048036038101906103509190612300565b610f25565b005b610371600480360381019061036c9190612445565b610f87565b60405161037e919061287d565b60405180910390f35b6103a1600480360381019061039c9190612275565b610f99565b6040516103ae9190612862565b60405180910390f35b6103d160048036038101906103cc919061224c565b61102d565b005b60007f80ac58cd000000000000000000000000000000000000000000000000000000007bffffffffffffffffffffffffffffffffffffffffffffffffffffffff1916827bffffffffffffffffffffffffffffffffffffffffffffffffffffffff1916148061049e57507f5b5e139f000000000000000000000000000000000000000000000000000000007bffffffffffffffffffffffffffffffffffffffffffffffffffffffff1916827bffffffffffffffffffffffffffffffffffffffffffffffffffffffff1916145b806104ae57506104ad82611125565b5b9050919050565b6060600080546104c490612d31565b80601f01602080910402602001604051908101604052809291908181526020018280546104f090612d31565b801561053d5780601f106105125761010080835404028352916020019161053d565b820191906000526020600020905b81548152906001019060200180831161052057829003601f168201915b5050505050905090565b60006105528261118f565b610591576040517f08c379a000000000000000000000000000000000000000000000000000000000815260040161058890612a3f565b60405180910390fd5b6004600083815260200190815260200160002060009054906101000a900473ffffffffffffffffffffffffffffffffffffffff169050919050565b60006105d782610764565b90508073ffffffffffffffffffffffffffffffffffffffff168373ffffffffffffffffffffffffffffffffffffffff161415610648576040517f08c379a000000000000000000000000000000000000000000000000000000000815260040161063f90612a9f565b60405180910390fd5b8073ffffffffffffffffffffffffffffffffffffffff166106676111fb565b73ffffffffffffffffffffffffffffffffffffffff1614806106965750610695816106906111fb565b610f99565b5b6106d5576040517f08c379a00000000000000000000000000000000000000000000000000000000081526004016106cc9061297f565b60405180910390fd5b6106df8383611203565b505050565b6106f56106ef6111fb565b826112bc565b610734576040517f08c379a000000000000000000000000000000000000000000000000000000000815260040161072b90612abf565b60405180910390fd5b61073f83838361139a565b505050565b61075f83838360405180602001604052806000815250610f25565b505050565b6000806002600084815260200190815260200160002060009054906101000a900473ffffffffffffffffffffffffffffffffffffffff169050600073ffffffffffffffffffffffffffffffffffffffff168173ffffffffffffffffffffffffffffffffffffffff16141561080d576040517f08c379a0000000000000000000000000000000000000000000000000000000008152600401610804906129bf565b60405180910390fd5b80915050919050565b6009805461082390612d31565b80601f016020809104026020016040519081016040528092919081815260200182805461084f90612d31565b801561089c5780601f106108715761010080835404028352916020019161089c565b820191906000526020600020905b81548152906001019060200180831161087f57829003601f168201915b505050505081565b60008073ffffffffffffffffffffffffffffffffffffffff168273ffffffffffffffffffffffffffffffffffffffff161415610915576040517f08c379a000000000000000000000000000000000000000000000000000000000815260040161090c9061299f565b60405180910390fd5b600360008373ffffffffffffffffffffffffffffffffffffffff1673ffffffffffffffffffffffffffffffffffffffff168152602001908152602001600020549050919050565b6109646111fb565b73ffffffffffffffffffffffffffffffffffffffff16610982610b00565b73ffffffffffffffffffffffffffffffffffffffff16146109d8576040517f08c379a00000000000000000000000000000000000000000000000000000000081526004016109cf90612a5f565b60405180910390fd5b6109e26000611601565b565b600a80546109f190612d31565b80601f0160208091040260200160405190810160405280929190818152602001828054610a1d90612d31565b8015610a6a5780601f10610a3f57610100808354040283529160200191610a6a565b820191906000526020600020905b815481529060010190602001808311610a4d57829003601f168201915b505050505081565b600b8054610a7f90612d31565b80601f0160208091040260200160405190810160405280929190818152602001828054610aab90612d31565b8015610af85780601f10610acd57610100808354040283529160200191610af8565b820191906000526020600020905b815481529060010190602001808311610adb57829003601f168201915b505050505081565b6000600760009054906101000a900473ffffffffffffffffffffffffffffffffffffffff16905090565b606060018054610b3990612d31565b80601f0160208091040260200160405190810160405280929190818152602001828054610b6590612d31565b8015610bb25780601f10610b8757610100808354040283529160200191610bb2565b820191906000526020600020905b815481529060010190602001808311610b9557829003601f168201915b5050505050905090565b610bc46111fb565b73ffffffffffffffffffffffffffffffffffffffff16610be2610b00565b73ffffffffffffffffffffffffffffffffffffffff1614610c38576040517f08c379a0000000000000000000000000000000000000000000000000000000008152600401610c2f90612a5f565b60405180910390fd5b6103e881600854610c499190612bb3565b1115610c8a576040517f08c379a0000000000000000000000000000000000000000000000000000000008152600401610c8190612adf565b60405180910390fd5b60005b818160ff161015610f0a5760c860085411610d6157610cae836008546116c7565b610d4460085460098054610cc190612d31565b80601f0160208091040260200160405190810160405280929190818152602001828054610ced90612d31565b8015610d3a5780601f10610d0f57610100808354040283529160200191610d3a565b820191906000526020600020905b815481529060010190602001808311610d1d57829003601f168201915b50505050506116e5565b60086000815480929190610d5790612d94565b9190505550610ef7565b60c8600854118015610d77575061032060085411155b15610e3b57610d88836008546116c7565b610e1e600854600a8054610d9b90612d31565b80601f0160208091040260200160405190810160405280929190818152602001828054610dc790612d31565b8015610e145780601f10610de957610100808354040283529160200191610e14565b820191906000526020600020905b815481529060010190602001808311610df757829003601f168201915b50505050506116e5565b60086000815480929190610e3190612d94565b9190505550610ef6565b610e47836008546116c7565b610edd600854600b8054610e5a90612d31565b80601f0160208091040260200160405190810160405280929190818152602001828054610e8690612d31565b8015610ed35780601f10610ea857610100808354040283529160200191610ed3565b820191906000526020600020905b815481529060010190602001808311610eb657829003601f168201915b50505050506116e5565b60086000815480929190610ef090612d94565b91905055505b5b8080610f0290612ddd565b915050610c8d565b505050565b610f21610f1a6111fb565b8383611759565b5050565b610f36610f306111fb565b836112bc565b610f75576040517f08c379a0000000000000000000000000000000000000000000000000000000008152600401610f6c90612abf565b60405180910390fd5b610f81848484846118c6565b50505050565b6060610f9282611922565b9050919050565b6000600560008473ffffffffffffffffffffffffffffffffffffffff1673ffffffffffffffffffffffffffffffffffffffff16815260200190815260200160002060008373ffffffffffffffffffffffffffffffffffffffff1673ffffffffffffffffffffffffffffffffffffffff16815260200190815260200160002060009054906101000a900460ff16905092915050565b6110356111fb565b73ffffffffffffffffffffffffffffffffffffffff16611053610b00565b73ffffffffffffffffffffffffffffffffffffffff16146110a9576040517f08c379a00000000000000000000000000000000000000000000000000000000081526004016110a090612a5f565b60405180910390fd5b600073ffffffffffffffffffffffffffffffffffffffff168173ffffffffffffffffffffffffffffffffffffffff161415611119576040517f08c379a0000000000000000000000000000000000000000000000000000000008152600401611110906128bf565b60405180910390fd5b61112281611601565b50565b60007f01ffc9a7000000000000000000000000000000000000000000000000000000007bffffffffffffffffffffffffffffffffffffffffffffffffffffffff1916827bffffffffffffffffffffffffffffffffffffffffffffffffffffffff1916149050919050565b60008073ffffffffffffffffffffffffffffffffffffffff166002600084815260200190815260200160002060009054906101000a900473ffffffffffffffffffffffffffffffffffffffff1673ffffffffffffffffffffffffffffffffffffffff1614159050919050565b600033905090565b816004600083815260200190815260200160002060006101000a81548173ffffffffffffffffffffffffffffffffffffffff021916908373ffffffffffffffffffffffffffffffffffffffff160217905550808273ffffffffffffffffffffffffffffffffffffffff1661127683610764565b73ffffffffffffffffffffffffffffffffffffffff167f8c5be1e5ebec7d5bd14f71427d1e84f3dd0314c0f7b2291e5b200ac8c7c3b92560405160405180910390a45050565b60006112c78261118f565b611306576040517f08c379a00000000000000000000000000000000000000000000000000000000081526004016112fd9061295f565b60405180910390fd5b600061131183610764565b90508073ffffffffffffffffffffffffffffffffffffffff168473ffffffffffffffffffffffffffffffffffffffff16148061138057508373ffffffffffffffffffffffffffffffffffffffff1661136884610547565b73ffffffffffffffffffffffffffffffffffffffff16145b8061139157506113908185610f99565b5b91505092915050565b8273ffffffffffffffffffffffffffffffffffffffff166113ba82610764565b73ffffffffffffffffffffffffffffffffffffffff1614611410576040517f08c379a0000000000000000000000000000000000000000000000000000000008152600401611407906128df565b60405180910390fd5b600073ffffffffffffffffffffffffffffffffffffffff168273ffffffffffffffffffffffffffffffffffffffff161415611480576040517f08c379a00000000000000000000000000000000000000000000000000000000081526004016114779061291f565b60405180910390fd5b61148b838383611a74565b611496600082611203565b6001600360008573ffffffffffffffffffffffffffffffffffffffff1673ffffffffffffffffffffffffffffffffffffffff16815260200190815260200160002060008282546114e69190612c3a565b925050819055506001600360008473ffffffffffffffffffffffffffffffffffffffff1673ffffffffffffffffffffffffffffffffffffffff168152602001908152602001600020600082825461153d9190612bb3565b92505081905550816002600083815260200190815260200160002060006101000a81548173ffffffffffffffffffffffffffffffffffffffff021916908373ffffffffffffffffffffffffffffffffffffffff160217905550808273ffffffffffffffffffffffffffffffffffffffff168473ffffffffffffffffffffffffffffffffffffffff167fddf252ad1be2c89b69c2b068fc378daa952ba7f163c4a11628f55a4df523b3ef60405160405180910390a46115fc838383611a79565b505050565b6000600760009054906101000a900473ffffffffffffffffffffffffffffffffffffffff16905081600760006101000a81548173ffffffffffffffffffffffffffffffffffffffff021916908373ffffffffffffffffffffffffffffffffffffffff1602179055508173ffffffffffffffffffffffffffffffffffffffff168173ffffffffffffffffffffffffffffffffffffffff167f8be0079c531659141344cd1fd0a4f28419497f9722a3daafe3b4186f6b6457e060405160405180910390a35050565b6116e1828260405180602001604052806000815250611a7e565b5050565b6116ee8261118f565b61172d576040517f08c379a0000000000000000000000000000000000000000000000000000000008152600401611724906129df565b60405180910390fd5b806006600084815260200190815260200160002090805190602001906117549291906120d8565b505050565b8173ffffffffffffffffffffffffffffffffffffffff168373ffffffffffffffffffffffffffffffffffffffff1614156117c8576040517f08c379a00000000000000000000000000000000000000000000000000000000081526004016117bf9061293f565b60405180910390fd5b80600560008573ffffffffffffffffffffffffffffffffffffffff1673ffffffffffffffffffffffffffffffffffffffff16815260200190815260200160002060008473ffffffffffffffffffffffffffffffffffffffff1673ffffffffffffffffffffffffffffffffffffffff16815260200190815260200160002060006101000a81548160ff0219169083151502179055508173ffffffffffffffffffffffffffffffffffffffff168373ffffffffffffffffffffffffffffffffffffffff167f17307eab39ab6107e8899845ad3d59bd9653f200f220920489ca2b5937696c31836040516118b99190612862565b60405180910390a3505050565b6118d184848461139a565b6118dd84848484611ad9565b61191c576040517f08c379a00000000000000000000000000000000000000000000000000000000081526004016119139061289f565b60405180910390fd5b50505050565b606061192d8261118f565b61196c576040517f08c379a000000000000000000000000000000000000000000000000000000000815260040161196390612a1f565b60405180910390fd5b600060066000848152602001908152602001600020805461198c90612d31565b80601f01602080910402602001604051908101604052809291908181526020018280546119b890612d31565b8015611a055780601f106119da57610100808354040283529160200191611a05565b820191906000526020600020905b8154815290600101906020018083116119e857829003601f168201915b505050505090506000611a16611c70565b9050600081511415611a2c578192505050611a6f565b600082511115611a61578082604051602001611a499291906127d7565b60405160208183030381529060405292505050611a6f565b611a6a84611c87565b925050505b919050565b505050565b505050565b611a888383611d2e565b611a956000848484611ad9565b611ad4576040517f08c379a0000000000000000000000000000000000000000000000000000000008152600401611acb9061289f565b60405180910390fd5b505050565b6000611afa8473ffffffffffffffffffffffffffffffffffffffff16611f08565b15611c63578373ffffffffffffffffffffffffffffffffffffffff1663150b7a02611b236111fb565b8786866040518563ffffffff1660e01b8152600401611b459493929190612816565b602060405180830381600087803b158015611b5f57600080fd5b505af1925050508015611b9057506040513d601f19601f82011682018060405250810190611b8d919061241c565b60015b611c13573d8060008114611bc0576040519150601f19603f3d011682016040523d82523d6000602084013e611bc5565b606091505b50600081511415611c0b576040517f08c379a0000000000000000000000000000000000000000000000000000000008152600401611c029061289f565b60405180910390fd5b805181602001fd5b63150b7a0260e01b7bffffffffffffffffffffffffffffffffffffffffffffffffffffffff1916817bffffffffffffffffffffffffffffffffffffffffffffffffffffffff191614915050611c68565b600190505b949350505050565b606060405180602001604052806000815250905090565b6060611c928261118f565b611cd1576040517f08c379a0000000000000000000000000000000000000000000000000000000008152600401611cc890612a7f565b60405180910390fd5b6000611cdb611c70565b90506000815111611cfb5760405180602001604052806000815250611d26565b80611d0584611f2b565b604051602001611d169291906127d7565b6040516020818303038152906040525b915050919050565b600073ffffffffffffffffffffffffffffffffffffffff168273ffffffffffffffffffffffffffffffffffffffff161415611d9e576040517f08c379a0000000000000000000000000000000000000000000000000000000008152600401611d95906129ff565b60405180910390fd5b611da78161118f565b15611de7576040517f08c379a0000000000000000000000000000000000000000000000000000000008152600401611dde906128ff565b60405180910390fd5b611df360008383611a74565b6001600360008473ffffffffffffffffffffffffffffffffffffffff1673ffffffffffffffffffffffffffffffffffffffff1681526020019081526020016000206000828254611e439190612bb3565b92505081905550816002600083815260200190815260200160002060006101000a81548173ffffffffffffffffffffffffffffffffffffffff021916908373ffffffffffffffffffffffffffffffffffffffff160217905550808273ffffffffffffffffffffffffffffffffffffffff16600073ffffffffffffffffffffffffffffffffffffffff167fddf252ad1be2c89b69c2b068fc378daa952ba7f163c4a11628f55a4df523b3ef60405160405180910390a4611f0460008383611a79565b5050565b6000808273ffffffffffffffffffffffffffffffffffffffff163b119050919050565b60606000821415611f73576040518060400160405280600181526020017f300000000000000000000000000000000000000000000000000000000000000081525090506120d3565b600082905060005b60008214611fa5578080611f8e90612d94565b915050600a82611f9e9190612c09565b9150611f7b565b60008167ffffffffffffffff811115611fe7577f4e487b7100000000000000000000000000000000000000000000000000000000600052604160045260246000fd5b6040519080825280601f01601f1916602001820160405280156120195781602001600182028036833780820191505090505b5090505b600085146120cc576001826120329190612c3a565b9150600a856120419190612e07565b603061204d9190612bb3565b60f81b818381518110612089577f4e487b7100000000000000000000000000000000000000000000000000000000600052603260045260246000fd5b60200101907effffffffffffffffffffffffffffffffffffffffffffffffffffffffffffff1916908160001a905350600a856120c59190612c09565b945061201d565b8093505050505b919050565b8280546120e490612d31565b90600052602060002090601f016020900481019282612106576000855561214d565b82601f1061211f57805160ff191683800117855561214d565b8280016001018555821561214d579182015b8281111561214c578251825591602001919060010190612131565b5b50905061215a919061215e565b5090565b5b8082111561217757600081600090555060010161215f565b5090565b600061218e61218984612b3f565b612b1a565b9050828152602081018484840111156121a657600080fd5b6121b1848285612cef565b509392505050565b6000813590506121c881613424565b92915050565b6000813590506121dd8161343b565b92915050565b6000813590506121f281613452565b92915050565b60008151905061220781613452565b92915050565b600082601f83011261221e57600080fd5b813561222e84826020860161217b565b91505092915050565b60008135905061224681613469565b92915050565b60006020828403121561225e57600080fd5b600061226c848285016121b9565b91505092915050565b6000806040838503121561228857600080fd5b6000612296858286016121b9565b92505060206122a7858286016121b9565b9150509250929050565b6000806000606084860312156122c657600080fd5b60006122d4868287016121b9565b93505060206122e5868287016121b9565b92505060406122f686828701612237565b9150509250925092565b6000806000806080858703121561231657600080fd5b6000612324878288016121b9565b9450506020612335878288016121b9565b935050604061234687828801612237565b925050606085013567ffffffffffffffff81111561236357600080fd5b61236f8782880161220d565b91505092959194509250565b6000806040838503121561238e57600080fd5b600061239c858286016121b9565b92505060206123ad858286016121ce565b9150509250929050565b600080604083850312156123ca57600080fd5b60006123d8858286016121b9565b92505060206123e985828601612237565b9150509250929050565b60006020828403121561240557600080fd5b6000612413848285016121e3565b91505092915050565b60006020828403121561242e57600080fd5b600061243c848285016121f8565b91505092915050565b60006020828403121561245757600080fd5b600061246584828501612237565b91505092915050565b61247781612c6e565b82525050565b61248681612c80565b82525050565b600061249782612b70565b6124a18185612b86565b93506124b1818560208601612cfe565b6124ba81612ef4565b840191505092915050565b60006124d082612b7b565b6124da8185612b97565b93506124ea818560208601612cfe565b6124f381612ef4565b840191505092915050565b600061250982612b7b565b6125138185612ba8565b9350612523818560208601612cfe565b80840191505092915050565b600061253c603283612b97565b915061254782612f05565b604082019050919050565b600061255f602683612b97565b915061256a82612f54565b604082019050919050565b6000612582602583612b97565b915061258d82612fa3565b604082019050919050565b60006125a5601c83612b97565b91506125b082612ff2565b602082019050919050565b60006125c8602483612b97565b91506125d38261301b565b604082019050919050565b60006125eb601983612b97565b91506125f68261306a565b602082019050919050565b600061260e602c83612b97565b915061261982613093565b604082019050919050565b6000612631603883612b97565b915061263c826130e2565b604082019050919050565b6000612654602a83612b97565b915061265f82613131565b604082019050919050565b6000612677602983612b97565b915061268282613180565b604082019050919050565b600061269a602e83612b97565b91506126a5826131cf565b604082019050919050565b60006126bd602083612b97565b91506126c88261321e565b602082019050919050565b60006126e0603183612b97565b91506126eb82613247565b604082019050919050565b6000612703602c83612b97565b915061270e82613296565b604082019050919050565b6000612726602083612b97565b9150612731826132e5565b602082019050919050565b6000612749602f83612b97565b91506127548261330e565b604082019050919050565b600061276c602183612b97565b91506127778261335d565b604082019050919050565b600061278f603183612b97565b915061279a826133ac565b604082019050919050565b60006127b2602083612b97565b91506127bd826133fb565b602082019050919050565b6127d181612cd8565b82525050565b60006127e382856124fe565b91506127ef82846124fe565b91508190509392505050565b6000602082019050612810600083018461246e565b92915050565b600060808201905061282b600083018761246e565b612838602083018661246e565b61284560408301856127c8565b8181036060830152612857818461248c565b905095945050505050565b6000602082019050612877600083018461247d565b92915050565b6000602082019050818103600083015261289781846124c5565b905092915050565b600060208201905081810360008301526128b88161252f565b9050919050565b600060208201905081810360008301526128d881612552565b9050919050565b600060208201905081810360008301526128f881612575565b9050919050565b6000602082019050818103600083015261291881612598565b9050919050565b60006020820190508181036000830152612938816125bb565b9050919050565b60006020820190508181036000830152612958816125de565b9050919050565b6000602082019050818103600083015261297881612601565b9050919050565b6000602082019050818103600083015261299881612624565b9050919050565b600060208201905081810360008301526129b881612647565b9050919050565b600060208201905081810360008301526129d88161266a565b9050919050565b600060208201905081810360008301526129f88161268d565b9050919050565b60006020820190508181036000830152612a18816126b0565b9050919050565b60006020820190508181036000830152612a38816126d3565b9050919050565b60006020820190508181036000830152612a58816126f6565b9050919050565b60006020820190508181036000830152612a7881612719565b9050919050565b60006020820190508181036000830152612a988161273c565b9050919050565b60006020820190508181036000830152612ab88161275f565b9050919050565b60006020820190508181036000830152612ad881612782565b9050919050565b60006020820190508181036000830152612af8816127a5565b9050919050565b6000602082019050612b1460008301846127c8565b92915050565b6000612b24612b35565b9050612b308282612d63565b919050565b6000604051905090565b600067ffffffffffffffff821115612b5a57612b59612ec5565b5b612b6382612ef4565b9050602081019050919050565b600081519050919050565b600081519050919050565b600082825260208201905092915050565b600082825260208201905092915050565b600081905092915050565b6000612bbe82612cd8565b9150612bc983612cd8565b9250827fffffffffffffffffffffffffffffffffffffffffffffffffffffffffffffffff03821115612bfe57612bfd612e38565b5b828201905092915050565b6000612c1482612cd8565b9150612c1f83612cd8565b925082612c2f57612c2e612e67565b5b828204905092915050565b6000612c4582612cd8565b9150612c5083612cd8565b925082821015612c6357612c62612e38565b5b828203905092915050565b6000612c7982612cb8565b9050919050565b60008115159050919050565b60007fffffffff0000000000000000000000000000000000000000000000000000000082169050919050565b600073ffffffffffffffffffffffffffffffffffffffff82169050919050565b6000819050919050565b600060ff82169050919050565b82818337600083830152505050565b60005b83811015612d1c578082015181840152602081019050612d01565b83811115612d2b576000848401525b50505050565b60006002820490506001821680612d4957607f821691505b60208210811415612d5d57612d5c612e96565b5b50919050565b612d6c82612ef4565b810181811067ffffffffffffffff82111715612d8b57612d8a612ec5565b5b80604052505050565b6000612d9f82612cd8565b91507fffffffffffffffffffffffffffffffffffffffffffffffffffffffffffffffff821415612dd257612dd1612e38565b5b600182019050919050565b6000612de882612ce2565b915060ff821415612dfc57612dfb612e38565b5b600182019050919050565b6000612e1282612cd8565b9150612e1d83612cd8565b925082612e2d57612e2c612e67565b5b828206905092915050565b7f4e487b7100000000000000000000000000000000000000000000000000000000600052601160045260246000fd5b7f4e487b7100000000000000000000000000000000000000000000000000000000600052601260045260246000fd5b7f4e487b7100000000000000000000000000000000000000000000000000000000600052602260045260246000fd5b7f4e487b7100000000000000000000000000000000000000000000000000000000600052604160045260246000fd5b6000601f19601f8301169050919050565b7f4552433732313a207472616e7366657220746f206e6f6e20455243373231526560008201527f63656976657220696d706c656d656e7465720000000000000000000000000000602082015250565b7f4f776e61626c653a206e6577206f776e657220697320746865207a65726f206160008201527f6464726573730000000000000000000000000000000000000000000000000000602082015250565b7f4552433732313a207472616e736665722066726f6d20696e636f72726563742060008201527f6f776e6572000000000000000000000000000000000000000000000000000000602082015250565b7f4552433732313a20746f6b656e20616c7265616479206d696e74656400000000600082015250565b7f4552433732313a207472616e7366657220746f20746865207a65726f2061646460008201527f7265737300000000000000000000000000000000000000000000000000000000602082015250565b7f4552433732313a20617070726f766520746f2063616c6c657200000000000000600082015250565b7f4552433732313a206f70657261746f7220717565727920666f72206e6f6e657860008201527f697374656e7420746f6b656e0000000000000000000000000000000000000000602082015250565b7f4552433732313a20617070726f76652063616c6c6572206973206e6f74206f7760008201527f6e6572206e6f7220617070726f76656420666f7220616c6c0000000000000000602082015250565b7f4552433732313a2062616c616e636520717565727920666f7220746865207a6560008201527f726f206164647265737300000000000000000000000000000000000000000000602082015250565b7f4552433732313a206f776e657220717565727920666f72206e6f6e657869737460008201527f656e7420746f6b656e0000000000000000000000000000000000000000000000602082015250565b7f45524337323155524953746f726167653a2055524920736574206f66206e6f6e60008201527f6578697374656e7420746f6b656e000000000000000000000000000000000000602082015250565b7f4552433732313a206d696e7420746f20746865207a65726f2061646472657373600082015250565b7f45524337323155524953746f726167653a2055524920717565727920666f722060008201527f6e6f6e6578697374656e7420746f6b656e000000000000000000000000000000602082015250565b7f4552433732313a20617070726f76656420717565727920666f72206e6f6e657860008201527f697374656e7420746f6b656e0000000000000000000000000000000000000000602082015250565b7f4f776e61626c653a2063616c6c6572206973206e6f7420746865206f776e6572600082015250565b7f4552433732314d657461646174613a2055524920717565727920666f72206e6f60008201527f6e6578697374656e7420746f6b656e0000000000000000000000000000000000602082015250565b7f4552433732313a20617070726f76616c20746f2063757272656e74206f776e6560008201527f7200000000000000000000000000000000000000000000000000000000000000602082015250565b7f4552433732313a207472616e736665722063616c6c6572206973206e6f74206f60008201527f776e6572206e6f7220617070726f766564000000000000000000000000000000602082015250565b7f4e46543a616d6f756e7420657863656564732074686520636170206c696d6974600082015250565b61342d81612c6e565b811461343857600080fd5b50565b61344481612c80565b811461344f57600080fd5b50565b61345b81612c8c565b811461346657600080fd5b50565b61347281612cd8565b811461347d57600080fd5b5056fea264697066735822122010ce547f61134a8879006ac71e946b891b898b216e077578f8536b54ca8ffdff64736f6c63430008020033",
  "immutableReferences": {},
  "source": "  // SPDX-License-Identifier: MIT\r\npragma solidity ^0.8.2;\r\n\r\n// import \"@openzeppelin/contracts/token/ERC721/ERC721.sol\";\r\nimport \"@openzeppelin/contracts/token/ERC721/extensions/ERC721URIStorage.sol\";\r\nimport \"@openzeppelin/contracts/access/Ownable.sol\";\r\n\r\ncontract NFT is ERC721, ERC721URIStorage, Ownable {\r\n    uint256 lastTokenId=1;\r\n    string public firstBaseUri=\"www.first.com\";\r\n    string public secondBaseUri=\"www.second.com\";\r\n    string public thirdBaseUri=\"www.third.com\";\r\n    \r\n\r\n    constructor() ERC721(\"MyToken\", \"MTK\") {}\r\n\r\n    function safeMint(address to,uint amount) public onlyOwner {\r\n        require(lastTokenId+amount<=1000,\"NFT:amount exceeds the cap limit\");\r\n         for(uint8 i = 0; i<amount; i++){\r\n             if(lastTokenId<=200){\r\n        _safeMint(to, lastTokenId);\r\n        _setTokenURI(lastTokenId, firstBaseUri);\r\n        lastTokenId ++;\r\n             }else if(lastTokenId>200 && lastTokenId<=800){\r\n                 _safeMint(to, lastTokenId);\r\n        _setTokenURI(lastTokenId, secondBaseUri);\r\n        lastTokenId ++;\r\n             }else{\r\n                 _safeMint(to, lastTokenId);\r\n        _setTokenURI(lastTokenId, thirdBaseUri);\r\n        lastTokenId ++;\r\n             }\r\n        }\r\n    }\r\n\r\n    // The following functions are overrides required by Solidity.\r\n\r\n    function _burn(uint256 tokenId) internal override(ERC721, ERC721URIStorage) {\r\n        super._burn(tokenId);\r\n    }\r\n\r\n    function tokenURI(uint256 tokenId)\r\n        public\r\n        view\r\n        override(ERC721, ERC721URIStorage)\r\n        returns (string memory)\r\n    {\r\n        return super.tokenURI(tokenId);\r\n    }\r\n}",
  "sourcePath": "C:\\BigImmersiive\\3rdTask\\contracts\\NFT.sol",
  "compiler": {
    "name": "solc",
    "version": "0.8.2+commit.661d1103.Emscripten.clang"
  },
  "schemaVersion": "3.4.6",
  "updatedAt": "2022-04-11T06:47:52.127Z",
  "networkType": "ethereum",
  "devdoc": {
    "kind": "dev",
    "methods": {
      "approve(address,uint256)": {
        "details": "See {IERC721-approve}."
      },
      "balanceOf(address)": {
        "details": "See {IERC721-balanceOf}."
      },
      "getApproved(uint256)": {
        "details": "See {IERC721-getApproved}."
      },
      "isApprovedForAll(address,address)": {
        "details": "See {IERC721-isApprovedForAll}."
      },
      "name()": {
        "details": "See {IERC721Metadata-name}."
      },
      "owner()": {
        "details": "Returns the address of the current owner."
      },
      "ownerOf(uint256)": {
        "details": "See {IERC721-ownerOf}."
      },
      "renounceOwnership()": {
        "details": "Leaves the contract without owner. It will not be possible to call `onlyOwner` functions anymore. Can only be called by the current owner. NOTE: Renouncing ownership will leave the contract without an owner, thereby removing any functionality that is only available to the owner."
      },
      "safeTransferFrom(address,address,uint256)": {
        "details": "See {IERC721-safeTransferFrom}."
      },
      "safeTransferFrom(address,address,uint256,bytes)": {
        "details": "See {IERC721-safeTransferFrom}."
      },
      "setApprovalForAll(address,bool)": {
        "details": "See {IERC721-setApprovalForAll}."
      },
      "supportsInterface(bytes4)": {
        "details": "See {IERC165-supportsInterface}."
      },
      "symbol()": {
        "details": "See {IERC721Metadata-symbol}."
      },
      "transferFrom(address,address,uint256)": {
        "details": "See {IERC721-transferFrom}."
      },
      "transferOwnership(address)": {
        "details": "Transfers ownership of the contract to a new account (`newOwner`). Can only be called by the current owner."
      }
    },
    "version": 1
  },
  "userdoc": {
    "kind": "user",
    "methods": {},
    "version": 1
  }
}