{
  "contractName": "NFTRecever",
  "abi": [
    {
      "inputs": [
        {
          "internalType": "uint256",
          "name": "_v",
          "type": "uint256"
        }
      ],
      "name": "setvalue",
      "outputs": [],
      "stateMutability": "nonpayable",
      "type": "function"
    },
    {
      "inputs": [],
      "name": "getValue",
      "outputs": [
        {
          "internalType": "uint256",
          "name": "",
          "type": "uint256"
        }
      ],
      "stateMutability": "view",
      "type": "function",
      "constant": true
    },
    {
      "inputs": [
        {
          "internalType": "address",
          "name": "",
          "type": "address"
        },
        {
          "internalType": "address",
          "name": "",
          "type": "address"
        },
        {
          "internalType": "uint256",
          "name": "",
          "type": "uint256"
        },
        {
          "internalType": "bytes",
          "name": "",
          "type": "bytes"
        }
      ],
      "name": "onERC721Received",
      "outputs": [
        {
          "internalType": "bytes4",
          "name": "",
          "type": "bytes4"
        }
      ],
      "stateMutability": "nonpayable",
      "type": "function"
    }
  ],
  "bytecode": "0x60806040526000805534801561001457600080fd5b50610315806100246000396000f3fe608060405234801561001057600080fd5b50600436106100415760003560e01c80630b4745ec14610046578063150b7a02146100625780632096525514610092575b600080fd5b610060600480360381019061005b91906101cc565b6100b0565b005b61007c6004803603810190610077919061014c565b6100ba565b6040516100899190610213565b60405180910390f35b61009a6100cf565b6040516100a7919061022e565b60405180910390f35b8060008190555050565b600063150b7a0260e01b905095945050505050565b60008054905090565b6000813590506100e7816102b1565b92915050565b60008083601f8401126100ff57600080fd5b8235905067ffffffffffffffff81111561011857600080fd5b60208301915083600182028301111561013057600080fd5b9250929050565b600081359050610146816102c8565b92915050565b60008060008060006080868803121561016457600080fd5b6000610172888289016100d8565b9550506020610183888289016100d8565b945050604061019488828901610137565b935050606086013567ffffffffffffffff8111156101b157600080fd5b6101bd888289016100ed565b92509250509295509295909350565b6000602082840312156101de57600080fd5b60006101ec84828501610137565b91505092915050565b6101fe8161025b565b82525050565b61020d816102a7565b82525050565b600060208201905061022860008301846101f5565b92915050565b60006020820190506102436000830184610204565b92915050565b600061025482610287565b9050919050565b60007fffffffff0000000000000000000000000000000000000000000000000000000082169050919050565b600073ffffffffffffffffffffffffffffffffffffffff82169050919050565b6000819050919050565b6102ba81610249565b81146102c557600080fd5b50565b6102d1816102a7565b81146102dc57600080fd5b5056fea2646970667358221220a555637c926d8799d4e9c60d0f4acf01a2ed2b0c185a832b9bad2400c6a5038264736f6c63430008020033",
  "immutableReferences": {},
  "source": "// SPDX-License-Identifier: MIT\r\npragma solidity ^0.8.2;\r\nimport \"@openzeppelin/contracts/token/ERC721/IERC721Receiver.sol\";\r\n\r\ncontract NFTRecever is IERC721Receiver{\r\n    uint internal value=0;\r\n\r\n    function setvalue(uint _v) external {\r\n        value=_v;\r\n    }\r\n    function getValue() external view returns(uint){\r\n        return value;\r\n    }\r\n    function onERC721Received(\r\n        address,\r\n        address,\r\n        uint256,\r\n        bytes calldata\r\n    ) public virtual override returns (bytes4){\r\n\r\n        return this.onERC721Received.selector;\r\n        \r\n    }\r\n\r\n    \r\n}",
  "sourcePath": "C:\\BigImmersiive\\3rdTask\\contracts\\NFTRecever.sol",
  "compiler": {
    "name": "solc",
    "version": "0.8.2+commit.661d1103.Emscripten.clang"
  },
  "schemaVersion": "3.4.6",
  "updatedAt": "2022-04-12T06:06:47.934Z",
  "networkType": "ethereum",
  "devdoc": {
    "kind": "dev",
    "methods": {},
    "version": 1
  },
  "userdoc": {
    "kind": "user",
    "methods": {},
    "version": 1
  }
}